:020000040800F2
:1000000018540020810200085F3F000849340008AE
:100010005D3F000845080008855700080000000003
:10002000000000000000000000000000C101000806
:10003000290A0008000000001D020008114E0008F7
:100040009B0200089B0200089B0200089B0200081C
:100050009B0200089B0200089B0200089B0200080C
:100060009B0200089B0200089B0200089B020008FC
:100070009B0200089B020008D10800089B020008B0
:100080009B0200089B0200089B0200089B020008DC
:10009000490800089B0200089B020008750A000836
:1000A0009B020008DD4E00089B0200089B0200082E
:1000B0009B020008E94E00089B0200089B02000812
:1000C0009B0200089B0200089B0200089B0200089C
:1000D0009B020008DD560008F15600089B0200084C
:1000E0009B0200089B0200089B0200089B0200087C
:1000F0009B0200089B0200089B0200089B0200086C
:100100009B0200089B0200089B0200089B0200085B
:100110009B0200089B0200089B0200089B0200084B
:100120009B020008DD080008E90800089B0200089F
:100130009B0200089B0200089B0200089B0200082B
:10014000550800089B0200089B0200089B0200085B
:100150009B0200089B0200089B020008F55600085D
:100160009B0200089B0200089B0200089B020008FB
:100170009B0200089B0200089B0200080000000090
:100180009B0200089B020008695300087D53000889
:100190009B0200089B0200089B0200089B020008CB
:1001A00000000000000000009B020008DFF80CD0F7
:1001B00000F0D2FA0048004799590008185400206E
:1001C0002C4B19680868B0E8F04F80F30988BFF33A
:1001D0006F8F4FF0000080F311887047000000001F
:1001E00008480068006880F308884FF0000080F33A
:1001F000148862B661B6BFF34F8FBFF36F8F00DF15
:1002000000BF00BF08ED00E0DFF80C00016841F41A
:1002100070010160704700BF88ED00E0EFF30980D6
:10022000BFF36F8F134B1A681EF0100F08BF20ED3D
:10023000108A20E9F04F106009B44FF0500080F3AD
:100240001188BFF34F8FBFF36F8F06F05FF84FF049
:10025000000080F3118809BC19680868B0E8F04F05
:100260001EF0100F08BFB0EC108A80F30988BFF3AE
:100270006F8F704738000020EFF305807047000053
:100280000648804706480047FEE7FEE7FEE7FEE730
:10029000FEE7FEE7FEE7FEE7FEE7FEE7C14E0008E9
:1002A000AD0100082DE9F05F0546002092469B460F
:1002B00088460646814640241BE02846414647467C
:1002C000224600F092F953465A46C01A914110D383
:1002D00011461846224600F079F92D1A67EB0108FD
:1002E0004F4622460120002100F070F917EB00096B
:1002F0004E41201EA4F10104DFDC484631462A4667
:100300004346BDE8F09F40EA01039B0703D009E0A4
:1003100008C9121F08C0042AFAD203E011F8013BF1
:1003200000F8013B521EF9D27047D2B201E000F84A
:10033000012B491EFBD270470022F6E710B5134689
:100340000A4604461946FFF7F0FF204610BD2DE986
:10035000FE4F804681EA0300C00F0C46009021F05A
:10036000004123F00045B8EB0200A94105D2404608
:10037000214690461C460B46024623F0004010439F
:1003800047D0270DC7F30A00C3F30A510290401A61
:10039000019040286BDAC3F3130040F4801B0098EF
:1003A000924620B10023D2EB030A63EB0B0B0198BA
:1003B0005946C0F14002504600F008F906460D4685
:1003C00050465946019A00F020F910EB08006141AF
:1003D000002487EA115284EAE7731A4340D0009A56
:1003E00062B3019A012A4FEA075215DC001B61EB48
:1003F00002014FF0004202EA0752CDE90042001C20
:1004000041F5801132462B4600F057F903B0BDE8A4
:10041000F08F40462146F9E7001B61EB0201001C0A
:1004200041F5801300185B412018A2F5001747EB37
:10043000030140EAD570B6196D4111E06D084FEA2D
:10044000360645EAC0754FEA0752001B61EB020110
:10045000001C41F5801149084FEA30000019514154
:1004600032462B4603B0BDE8F04F00F017B90098B4
:10047000012240000023D0EB020263EBE0730098FE
:1004800021464FEAE074B8EB000061EB0401E9E7B4
:1004900083F000435BE781F0004158E72DE9F04D20
:1004A00081EA030404F0004B21F0004514464FF0AC
:1004B000000A23F0004150EA050220D054EA01026C
:1004C0001DD0C5F30A570246C5F31303C1F3130049
:1004D000C1F30A5640F4801543F48013A7EB0608D5
:1004E000101BD64608F2FD3873EB050002D308F165
:1004F000010801E092185B41B8F1000F03DA002017
:100500000146BDE8F08D00204FF480110646844678
:100510000EE0171B73EB050705D3121B63EB0503F6
:1005200006434CEA010C49084FEA300092185B413F
:1005300050EA0107EDD152EA030012D082EA04002A
:1005400083EA0501084305D0101BAB4106D2012206
:10055000002306E000224FF0004302E06FF00102AA
:1005600053101AEB06004CEB085110EB0A0041EB5C
:100570000B01BDE8F04D00F091B80EB540F23341EB
:1005800002910021CDE900110A460B4600F095F8D2
:1005900003B000BD01F0004330B421F0004150EA47
:1005A000010206D00A0DA2F56072C1F31301002A00
:1005B00002DC30BC00207047440F44EAC104C10093
:1005C000E01830BC00EBC25000F031B8202A04DB48
:1005D000203A00FA02F1002070479140C2F1200356
:1005E00020FA03F3194390407047202A04DB203A95
:1005F00021FA02F00021704721FA02F3D040C2F143
:1006000020029140084319467047202A06DBCB1789
:10061000203A41FA02F043EAE07306E041FA02F3BD
:10062000D040C2F12002914008431946704700298A
:10063000A8BF7047401C490008BF20F00100704768
:1006400010B4B0FA80FC00FA0CF050EA010404BFC8
:1006500010BC704749B1CCF1200421FA04F411FA1E
:100660000CF118BF012121430843A3EB0C01CB1D62
:100670004FEA00614FEA102042BF002010BC7047D3
:1006800000EBC35010440029A4BF10BC7047401CAD
:10069000490008BF20F0010010BC704710B5141EBF
:1006A00073F1000408DA401C41F1000192185B412B
:1006B0001A4301D120F0010010BD2DE9F04D924602
:1006C0009B4611B1B1FA81F202E0B0FA80F2203219
:1006D0009046FFF77BFF04460F4640EA0A0041EAD6
:1006E0000B0153465A46084313D0114653EA010002
:1006F00019D0C8F140025046FFF777FF05460E4675
:10070000504659464246FFF761FF084305D0012095
:1007100004E020463946BDE8F08D0020054346EA56
:10072000E0762C4337430A986305E40AA0EB0800FF
:100730000022FD0A44EA47540A3002D5002001464F
:10074000E9E7010510196941DDE90845001969412A
:10075000BDE8F04DA2E70000064C074D06E0E0685A
:1007600040F0010394E8070098471034AC42F6D3F8
:10077000FFF720FD406B0008606B000830B58C1857
:1007800010F8012B12F00F0301D110F8013B1209F0
:1007900006D110F8012B03E010F8015B01F8015BB2
:1007A0005B1EF9D101E001F8013B521EFBD1A142D1
:1007B000E6D3002030BD000030B58BB000210446E8
:1007C000012001910291CDE90610039108900E20BD
:1007D0000C4A049100910990944200D105910A4974
:1007E0008C4200D105906946204600F0C3FC0546C6
:1007F000204601F081F80221204600F045FC0BB0B4
:10080000284630BD5C0100208401002010B503F0B3
:10081000BBFE02F0E1FE04F091F805F083F803F06E
:1008200067FF03F0FDFB04F0CBFA0448FFF7C4FFB9
:10083000BDE810400248FFF7BFBF00005C01002088
:1008400084010020FEE70000014800F08EBD00009A
:100850005C010020014800F088BD000084010020F8
:100860000A8852BA42824A8852BA02808A8852BAA8
:1008700042808A790272C979417270477CB5134C03
:100880000826069D26610026A660E6604FF40076E5
:1008900026600C0A8DF800408DF80110110A8DF8C1
:1008A0000210190A8DF804108DF80530290A8DF808
:1008B00006108DF803208DF8075001236A4603497E
:1008C00000F0F4FB002800D001207CBDEC490020A2
:1008D000014801F057B8000098060020014801F0D7
:1008E00051B8000058070020014801F04BB8000043
:1008F000F806002001681823CAB2103AB2FBF3F2DE
:10090000054B6FF30901032A9B5CC36500D9091DE0
:1009100081650846704700008467000810B50146ED
:1009200000208B698A6A4FF0C07453B1B3F5005F41
:1009300015D072B1012A0CD0022A0AD0032A09D19B
:1009400004E01AB1012A06D0022A03D1C96AC901FA
:1009500000D5012010BDC96AA142FAD010BD002AFD
:10096000F7D0012AF2D0022AF3D0032AF3D010BD27
:1009700030B50468256825F4802525600468636027
:100980008368402B036803D099600068C26030BD63
:100990009A600068C16030BD38B51E4C206801689F
:1009A000C9061AD5016840680090606B006801684C
:1009B00021F001010160606B0068406812280DD0D1
:1009C000242003F055FE616B242009684860606BA9
:1009D0000068016841F00101016038BD0E4901F174
:1009E000140004F003F803F011FE042003F086FF66
:1009F0000B480A49006805F0EFFB0848006800282A
:100A0000E1D008494FF080500860BFF34F8FBFF32B
:100A10006F8FD8E7D8050020D04E00202801002095
:100A20000400002004ED00E07047000070B50024D1
:100A300000F088FA0D4B0E4D03F13C015FF0010010
:100A400003EB8402D2ED000A70EE600A10EE902AE9
:100A5000AA420A7B00FA04F601DD324300E0B24309
:100A6000641CE4B20A73072CEAD370BD94480020DA
:100A70000000C842202001F04BB900009FED062A7B
:100A8000DFED061AB2EE0E1ADFED050A9FED050A3C
:100A90000021054803F090BB00000000CDCCCC3D08
:100AA00000E02B4600606A46E844002010B5074C81
:100AB0002078012805D19621084604F07FF900200E
:100AC00020706089401C608110BD0000340100204E
:100AD0002DE9F041234C2078002812D194F903002D
:100AE00002270026012502280DD0012809D1206AFD
:100AF00000282FDA1C49884226DD4FF448702082F6
:100B00006570BDE8F0811949206A88420DDD9621A3
:100B1000084604F053F91649206A884202DA4FF673
:100B20001840ECE79FED130A10E07821084604F026
:100B300045F9657026822089401C00B22081642816
:100B4000DFDDE5702681DCE79FED0B0A84ED050A09
:100B50006770D6E765702682E770A078401CA070A9
:100B60002570CEE73401002010B6FDFF1010EFFF16
:100B7000C0BDF0FF00409CC500401C452DE9F04180
:100B8000244C2078002812D194F903000227002673
:100B9000012502280DD0012809D1206A00282FDA6A
:100BA0001D49884226DD4FF4487020826570BDE8FB
:100BB000F0811A49206A88420DDD9621084604F02A
:100BC000FDF81749206A884202DA4FF61840ECE730
:100BD0009FED140A10E07821084604F0EFF86570E4
:100BE00026822089401C00B220816428DFDDE57068
:100BF0002681DCE79FED0C0A84ED050A6770D6E7D5
:100C000065700A482682E7704570A078401CA07085
:100C10002570CCE73401002010B6FDFF1010EFFF67
:100C2000C0BDF0FF00409CC500401C45FC4F0020AB
:100C30001CB5FFF723FF05F069FC744FDFF8D08186
:100C4000DFF8D0A1DFF8D0B1744D754C4FF0020938
:100C500000260190032003F065FE78692062388841
:100C6000E08195F9010010B101280FD0A8E098F8B3
:100C70000900012802D0022803D0A1E00120287039
:100C800001E085F80090FFF779FF99E095F9000001
:100C9000012802D0022842D092E09AF90200687539
:100CA00094F90210884212D1FFF700FF6089401CBE
:100CB00000B26081B0F5967F09DB94F90200042848
:100CC00005DAFFF705FF2078012800D1668194F945
:100CD0000200022802D0042810D071E020780128F8
:100CE0006ED19AF8021001296AD1A189491C09B272
:100CF000A181C82964DB8AF8029050E0207801289D
:100D00005ED19AF8020003285AD1A089401C00B293
:100D1000A081C82854DB04208AF802003FE09BF839
:100D20003810012904D12279012A0AD16975267166
:100D3000032906D16179012903D19BF83800687530
:100D4000667195F9150094F90210884212D1FFF7E7
:100D5000ADFE6089401C00B26081B0F5967F09DB72
:100D600094F90200042808DAFFF7B2FE207801287F
:100D700000D16681A078022803D0A078042810D082
:100D80001EE0207801281BD1687D012818D1A08998
:100D9000401C00B2A081C82812DB85F81590A681FE
:100DA0000EE0207801280BD1687D032808D1A089A6
:100DB000401C00B2A081C82802DB04206875EEE761
:100DC0006078012810D1B4F9100000EE100AB4F9CF
:100DD0000E00F8EEC00A00EE100A1248B8EEC00A83
:100DE00003F02CF984ED050A009694ED050A002322
:100DF0001A46BDEEC00A10EE100A01B20A48FFF70B
:100E00003DFD052101A804F0FFFD23E7E048002097
:100E1000D04E0020580100209C4B0020FC4F0020A9
:100E200034010020E84400205C01002070470000ED
:100E300010B558B1084C491E0BD310F8013B534074
:100E4000DBB234F8133083EA1222F4E74FF6FF7076
:100E500010BD104610BD0000A468000810B5054C78
:100E600004E000BF10F8013B5340E25C491EF9D298
:100E7000104610BDA467000810B5038943810A8895
:100E800052BA02814C88D31A64BA04808988B3F5B7
:100E9000805F49BA4180016901DD491E03E013F515
:100EA000805F01DA491C016102EB41318289891AB4
:100EB000416110BD10B5038943810A8852BA02818D
:100EC0004C88D31A64BA04808C88B3F5805F64BA06
:100ED000448089798171016901DD491E03E013F5C0
:100EE000805F01DA491C016102EB41318289891A74
:100EF000416110BD10B5038943810A8852BA02814D
:100F00004C88D31A64BA04808C88B3F5805F64BAC5
:100F1000848089798171016901DD491E03E013F53F
:100F2000805F01DA491C016102EB41318289891A33
:100F3000416110BD0A8852BA0281498849BA0180CC
:100F40008281704710B50F4C2DED028B6068FFF762
:100F500014FB41EC180BA0680068406AFFF70DFB1A
:100F60009FED091B53EC112BFFF798FA53EC182B4C
:100F7000FFF7EDF9FFF70EFBBDEC028B00EE100A58
:100F800010BD0000D04800200000000000005940C3
:100F900008B505F0BBFA254E254C264D4FF4FA77DF
:100FA0000090052003F0BEFCB6F90200B84210DD47
:100FB00000220121204600F0ADFF0122022120463F
:100FC00000F0A8FF00221021284600F0A3FF012214
:100FD00023E010F5FA7F0BDA01221146204600F0DB
:100FE00099FF00220221204600F094FF01220FE029
:100FF00000F59670B0F5167F13D800220121204627
:1010000000F088FF00220221204600F083FF00222A
:101010001021284600F07EFF00222021284600F003
:1010200079FF0521684604F0EFFCBAE7D04E0020B6
:1010300000140240001002407CB5124D40F2FF1433
:1010400008262C600024AC60C5E903460D0A8DF823
:1010500000508DF80110110A8DF80210190A8DF850
:1010600004108DF805308DF803208DF806408DF8BA
:10107000074001236A46034900F018F8002800D011
:1010800001207CBDA449002090F82020012A07D02F
:10109000022A05D0416A41F4802141620120704753
:1010A000006842690A43426100207047F0B590F839
:1010B00020500468A468012D05D0022D03D0416A98
:1010C00041F4802153E014F0406F01D1E5004BD58D
:1010D000C4F30164022C03D9416A41F4000146E0E3
:1010E0000125A5401D608D684FF4C0739DB1CE6889
:1010F00035434E6845EAC605066803EB0417F5510B
:101100004FF4C275076805EB04150E697E51097D21
:10111000012905D009E00E88CD6845EA4655EBE780
:1011200001684E5946F480764E511179D2F8055037
:101130004FF4C67641EA0525016806EB04168D5189
:101140001178D2F801204FF4C47541EA02210268F7
:1011500005EB04155151006803EB0411425842F0AD
:10116000010242500020F0BD416A41F40011416289
:101170000120F0BD10B590F82020012A07D0022AE6
:1011800005D0416A41F480214162012010BD3B48F5
:10119000D0F8002242F00102C0F80022D0F800226C
:1011A00022F47C52C0F80022D0F800224B6A42EAB6
:1011B0000322C0F800220A7D02F01F0301229A4098
:1011C000D0F81C329343C0F81C32CB69B3B9D0F8C5
:1011D0000C329343C0F80C328C894B6864F31F4384
:1011E0004C6900EBC404C4F840320C890B6864F30A
:1011F0001F434C6900EBC404C4F84432CB69012B93
:1012000016D1D0F80C321343C0F80C320C884B685E
:1012100064F31F434C6900EBC404C4F840320C89EA
:10122000CB6864F31F434C6900EBC404C4F8443238
:101230008B69002BD0F804320ED01343C0F804326F
:101240000B69002BD0F8143208D01343C0F81432C5
:10125000096A012904D008E09343EFE79343F5E7D7
:10126000D0F81C121143C0F81C12D0F8001221F063
:101270000101C0F80012002010BD00000064004011
:10128000704730B590F82040012C05D0022C03D0D7
:10129000416A41F480215DE00468002955D0246949
:1012A000A40754D04FF4D874056804EB01142D59E9
:1012B00015F00405956005682D594ED0ED08556070
:1012C00005682C5904F00204D4604FF4DA74056800
:1012D00004EB01142D5905F00F05156105682D5912
:1012E000C5F30725956105682C59240C54614FF40A
:1012F000DC72046802EB0112A4581C700468A45844
:10130000240A5C700468A458240C9C700468A258D9
:10131000120EDA704FF4DE72046802EB0112A45868
:101320001C710468A458240A5C710468A458240C35
:101330009C710468A258120EDA71006881B10169CB
:1013400041F020010161002030BDE468A8E7416A56
:1013500041F400114162012030BD6D0D1560AFE711
:10136000C16841F02001C160EDE72DE9F05F05465D
:10137000006800244669D0F804908768D0F80CB063
:10138000D0F810A0D0F81880F10748D0F90714D091
:1013900001218160B80703D5284600F0DAFA0CE095
:1013A000780702D54FF4006407E0380702D54FF400
:1013B000805402E0284600F0CBFAF80516D52968DB
:1013C0004FF480708860B80503D5284600F0C3FA52
:1013D0000CE0780502D544F4005407E0380502D546
:1013E00044F4804402E0284600F0B4FAF80316D52D
:1013F00029684FF480308860B80303D5284600F090
:10140000ACFA0CE0780302D544F4004407E038035A
:1014100002D544F4803402E0284600F09DFA3007FB
:1014200007D55FEACB6004D52968102044F4007426
:10143000C86070074FF0080707D55FEA0B7004D546
:101440002868C760284600F099F9B00706D52868D3
:10145000C068800702D0284600F092F9700607D5D0
:101460005FEACA6004D52968102044F480640861EA
:10147000B00607D55FEA0A7004D5286807612846D8
:1014800000F036FAF00606D528680069800702D019
:10149000284600F02EFAB00308D55FEAC96005D5EA
:1014A000296810204860284600F024FAF00307D588
:1014B0005FEA097004D528684760284600F04EFAB4
:1014C000300446D55FEA497040D5F00504D55FEA9F
:1014D000C87001D044F00104B00504D55FEA8870FB
:1014E00001D544F00204700504D55FEA487001D5C7
:1014F00044F00404300529D518F0700F26D008F008
:101500007000402815D006DC102809D020280AD009
:10151000302816D10AE050280ED0602811D10EE0F4
:1015200044F008040DE044F010040AE044F0200404
:1015300007E044F0400404E044F0800401E044F497
:1015400080742868816921F0700181612968042014
:101550004860002C05D0686A204368622846FFF77F
:101560008FFEBDE8F09F70B5040003D094F8200012
:1015700010B104E0012070BD204600F081F8206821
:10158000016821F00201016000F0CAFC0546052651
:1015900004E000F0C5FC401B0A2811D82068406810
:1015A0008007F6D42068016841F00101016000F075
:1015B000B7FC05460BE000F0B3FC401B0A2806D937
:1015C000606A40F40030606284F82060D2E72068EE
:1015D0004068C007EFD0207E0128206801683DD018
:1015E00021F080010160607E01282068016838D008
:1015F00021F040010160A07E01282068016833D0FD
:1016000021F020010160E07E0128206801682ED0D1
:1016100041F010010160207F01282068016829D075
:1016200021F008010160607F01282068016824D052
:1016300021F004010160D4E902010843D4E9041255
:10164000114308436168491E08432168C8610020AE
:101650006062012084F82000002070BD41F080010C
:10166000C0E741F04001C5E741F02001CAE721F0A1
:101670001001CFE741F00801D4E741F00401D9E7B8
:10168000F0B587B0044614216846FEF755FE364B88
:101690003648DFF8D0E01968D4F800C0334A032593
:1016A0000226092710300024491CF44522D1196074
:1016B000012907D1016841F000710160006800F064
:1016C00000700590106840F0080010601068CDE9C7
:1016D000005600F00800CDE9047069462448CDE9C1
:1016E000024500F021FB00220521142000F0A4FC9B
:1016F000142033E0DFF87CE0F44531D1D0F800C0AD
:101700004CF0806CC0F800C0D0F800C001290CF08B
:10171000806CCDF814C0196007D1016841F00071E8
:101720000160006800F000700590106840F0020051
:101730001060106802AB00F0020005904FF44050BA
:10174000CDE9000683E8B00069460B4800F0ECFAEA
:1017500000220521402000F06FFC402000F05EFCDC
:1017600007B0F0BD006400400000002030380240A7
:10177000000C024000680040000402407047000076
:1017800070B5564992B0884272D16B4602AA0021C8
:10179000FFF777FD02983325514CA0F2012007286E
:1017A0001DD2DFE800F0041E2F3E66784D000320B6
:1017B00003F0A4F8207E411C2176322802D8694625
:1017C000474848E0257669464548FFF773FB454999
:1017D000D1E90002401C42F10002C1E9000212B04E
:1017E00070BD032003F08AF894F83410481C84F884
:1017F00034003B481C30322901D869462BE084F87C
:10180000345044E0032003F079F894F85010481C59
:1018100084F85000324838303229EED984F85050DC
:1018200035E0032003F06AF894F86C10481C84F843
:101830006C002B4854303229DFD984F86C5026E0F4
:1018400094F88810264E481C703684F88800322997
:1018500004D869463046FFF76DFBC0E784F888502E
:10186000022003F04BF869463046FFF705FBB6E768
:1018700023E0002003F042F894F8A410481C84F8F8
:10188000A40017488C303229B7D984F8A45069468F
:10189000FFF710FBA3E7012003F030F894F8C01025
:1018A000481C84F8C0000E48A8303229A5D984F815
:1018B000C0506946FFF71EFB91E70B4988428ED165
:1018C00010AB09AA0021FFF7DCFC0998B0F5887F6E
:1018D00085D110A90548FEF7C3FF80E75C01002011
:1018E000E04800200001002084010020D04E0020AC
:1018F000704770477047000070B5044690F82000AC
:10190000012804D0606A40F40020606218E00220E0
:1019100084F820002068016821F00101016000F0D6
:10192000FFFA05460EE000BF00F0FAFA401B0A2855
:1019300008D9606A40F400306062052084F8200015
:10194000012070BD20684068C007EDD1606270BDA5
:10195000704770477047704770477047704790F8FE
:101960003510022903D080214165012070470521EF
:1019700080F835100068016821F001010160002045
:10198000704700002DE9F84304464FF00009CDF8F8
:10199000009063484FF41651A56D0068B0FBF1F755
:1019A0002E6894F85C10082000FA01F131420FD043
:1019B00021680A6852070BD50A6822F004020A60FF
:1019C00094F85C108840A860606D40F0010060658C
:1019D00094F85C104FF0010808FA01F0304208D08A
:1019E00021684969090604D5A860606D40F00200CD
:1019F000606594F85C1004208840304208D021686B
:101A00000968890704D5A860606D40F0040060652E
:101A100094F85C1010208840304218D02168096882
:101A2000090714D5A86020680168490304D5006837
:101A3000000308D5A16C07E00168C90503D401685B
:101A400021F008010160216C09B12046884794F813
:101A50005C1020208840304231D021680968C906D6
:101A60002DD5A86094F8350005282068016806D0B7
:101A7000490347D5006800031DD4616C1CE021F0C8
:101A8000160101602068416921F080014161206CEC
:101A900008B9A06C20B12068016821F0080101603C
:101AA00094F85C103F208840A86084F8349084F853
:101AB0003580216D1FE0E16B09B120468847606DDC
:101AC00000282BD0606DC00714D0052084F83500A5
:101AD0002068016821F0010101600098401C00901D
:101AE000B84203D820680068C007F6D184F8349063
:101AF00084F83580E16C002910D001B02046BDE8A3
:101B0000F04308470168C905D5D4016821F01001E8
:101B1000016084F8349084F83580CCE7BDE8F88320
:101B2000340000202DE9F041044600F0F9F90646A2
:101B30005CB1002584F83450022084F83500206818
:101B4000016821F0010101600DE00120BDE8F08194
:101B500000F0E6F9801B052805D9202060650320E8
:101B600084F83500F2E720680068C007F0D12268E9
:101B7000116820480140D4E901031843D4E9033631
:101B80003343184363691843A3691843E36918434F
:101B9000236A18430843616A042903D1D4E90B136B
:101BA00019430843106020684069666A20F0070105
:101BB00030460E43012704280CD1A06A0643E06A90
:101BC00040B12046FEF7AAFE20B14020606584F8AF
:101BD0003570BAE7206846612046FEF78BFE94F820
:101BE0005C203F2191408160656584F8357000205C
:101BF000ACE700003F8010F070B5044690F8340068
:101C0000002501280CD0012084F8340094F83560B8
:101C10000020012E06D084F834000225284670BD2D
:101C2000022070BD022684F8356060652046FEF70C
:101C30009FFE2068016841F001010160EEE72DE997
:101C4000F0410446866D90F83400002501280DD03F
:101C5000012084F8340094F835700020012F07D05B
:101C600084F8340002252846BDE8F0810220FBE715
:101C7000022784F8357060652046FEF779FE94F8F7
:101C80005C103F208840B0602068016841F0160178
:101C90000160206C20B12068016841F008010160FA
:101CA0002068016841F001010160DCE770B504467D
:101CB00000F036F90546601C02D004480078044460
:101CC00000F02EF9401BA042FAD370BD280000207E
:101CD00070B5202812D10C4D2021284600F00EF9B5
:101CE0000A4C01280BD02021284600F007F90028D3
:101CF00004D12068016841F01001016070BD2068C6
:101D0000016821F01001F8E70000024058040020AB
:101D1000044910B50A68024202D00860FFF7D8FFF4
:101D200010BD0000143C01402DE9F84F00224FF097
:101D3000010803254FF00F0E0B6808FA02F4234048
:101D4000A3426ED14E68012E05D0022E03D0112E73
:101D500001D0122E12D186684FEA420C05FA0CF718
:101D6000BE43CF6807FA0CF7374387604668A6433F
:101D70000C79C4F30014944034434460C66857009F
:101D800005FA07FC8C6826EA0C06BC403443C460A4
:101D90004C68022C01D0122C13D1D40800EB84041F
:101DA000A346D4F8209054074FEAD46A0EFA0AF6F4
:101DB00029EA06090E6906FA0AF646EA0906CBF888
:101DC000206004680E7924EA0C0406F00306BE4085
:101DD000264306604C68E4006FD53B4C266846F409
:101DE00080462660246822F0030604F480440094B0
:101DF000364C3444A446D4F808489607360F0EFAF9
:101E000006F7BC43324FB84201D100272EE0314FD4
:101E1000B84201D1012729E02F4FB84202D1022751
:101E200024E04AE02D4FB84201D103271EE02C4F99
:101E3000B84201D1042719E02A4FB84201D1052741
:101E400014E0294FB84201D106270FE0274FB842CE
:101E500001D107270AE0264FB84201D1082705E043
:101E6000244FB84201D1092700E00A27B740274391
:101E7000CCF80878204E34684F689C43FF0300D5A7
:101E80001C4334601C4E361D34684F689C43BF03AE
:101E900000D51C433460184E083634684F689C43A4
:101EA000FF0200D51C433460134E0C3634684F6873
:101EB0009C43BF0200D51C433460521C102AFFF41F
:101EC0003BAFBDE8F88F00004438024000300140CD
:101ED000000002400004024000080240000C0240E2
:101EE000001002400014024000180240001C024092
:101EF0000020024000240240003C014000690840EC
:101F000000D001207047426931EA020200D1090481
:101F1000816170470AB1816170470904FBE70000E5
:101F2000014880687047000028000020024881684E
:101F30000278114481607047280000200B4810B5DA
:101F4000016841F400710160016841F48061016041
:101F5000016841F480710160032000F08DF80020D9
:101F600000F006F800F03EF8002010BD003C0240F2
:101F700010B5014688B00022192000F05DF8192044
:101F800000F04CF813480024016841F001010160A1
:101F9000006805A900F001000690684600F018F9F5
:101FA00000F046F90C494000B0FBF1F10C480B4A37
:101FB000491E026040F2E732C0E90324C0E901147F
:101FC00000F0D8FC10B1012008B010BD044800F0AA
:101FD0004DFDF9E74438024040420F000000014047
:101FE000B80700200C4882B0016841F480410160CC
:101FF000006800F4804000900748001F016841F02D
:10200000805101600068002200F0805000900F2194
:10201000901E02B000F010B844380240002809DBDE
:1020200000F01F02012191404009800000F1E020F2
:10203000C0F8001170470000F0B40E4B1B680C464E
:10204000C3F30223C3F10705042D00D90425191D8C
:10205000072901D2002300E0DB1E012606FA05F164
:10206000491E214099409E40761E16403143F0BCE7
:1020700003F062BC0CED00E0064900F007020868BE
:102080004FF6FF03184040EA0220034A104308605D
:10209000704700000CED00E00000FA052DE9F04764
:1020A0000E46050065D0DFF81481D8F80000F7B2BD
:1020B00000F00F00B04207D288F80070D8F8000096
:1020C00000F00F00B04254D128683D4C810712D572
:1020D000400703D5206840F4E050206028780007CE
:1020E00003D5206840F4604020602068A96820F093
:1020F000F000084320602878C0072DD03049686878
:102100000839012812D0022813D0032811D00968F9
:10211000890700292DDA216821F00301014321609C
:10212000FFF7FEFE814641F2883A0EE00968890316
:10213000EFE709688901ECE7FFF7F2FEA0EB090180
:10214000514502D90320BDE8F0872068696800F096
:102150000C00B0EB810FEFD1D8F80010404601F031
:102160000F01B14207D90770006800F00F00B042BC
:1021700001D00120E7E72878400705D52068E96805
:1021800020F4E050084320602878000706D5206836
:10219000296920F4604040EAC100206000F058F84E
:1021A0002168084AC1F30311515CC8400649086020
:1021B00006480068FFF7DCFE0020C4E7003C024050
:1021C000083802408C670008340000202C000020F2
:1021D0000F2202600C4A136803F003034360136884
:1021E00003F0F0038360136803F4E053C3601268E4
:1021F0004FF4E05303EAD20202610448006800F0A1
:102200000F0008607047000008380240003C0240A0
:102210000448054900680968044AC1F38221515CF9
:10222000C840704734000020083802409C6700080E
:102230000448054900680968044AC1F34231515C09
:10224000C840704734000020083802409C670008EE
:10225000154810B5006810F00C02144813D014494A
:10226000042A0FD0082A0ED10F4C241F226823689D
:1022700002F03F025B0207D52068C0F38810A0FB84
:10228000010106E0084610BD2168C1F38811A1FBD9
:1022900000010023FEF706F82168C1F30141491C43
:1022A0004900B0FBF1F010BD083802400024F400F2
:1022B000001BB7002DE9F84F040076D02078DFF836
:1022C00038A3CE4DC00749D0DAF800105046C1F30C
:1022D0008101012908D00068C0F3810002280AD1D9
:1022E000281D0068400206D52868800336D560683E
:1022F0000028E2D032E06068B0F5803F10D0B0F541
:10230000A02F286810D020F480302860286820F49E
:10231000802028606068A0B1FFF702FE06460CE04E
:10232000286840F48030F4E740F480202860F7E724
:10233000FFF7F6FD801B642873D828688003F7D563
:102340000CE0FFF7EDFD064605E000BFFFF7E8FDF6
:10235000801B6428F0D828688003F7D42078DFF841
:10236000A08280074FF000093ED5DAF800105046F1
:1023700011F00C0F09D00068C0F3810002280BD1C6
:102380009D48001F0068400206D42868800715D5C4
:10239000E068012809D111E0E068B8B10120C8F86F
:1023A0000000FFF7BDFD064605E020E1FFF7B8FDA0
:1023B000801B0228C0D828688007F7D528682169C3
:1023C00020F0F80040EAC10028600DE0C8F8009055
:1023D000FFF7A6FD064604E0FFF7A2FD801B0228DA
:1023E0001FD828688007F7D42078000722D5824EAE
:1023F000844861696C3671B101210160FFF790FD7D
:10240000074604E0FFF78CFDC01B022809D830689E
:102410008007F7D50EE0C0F80090FFF781FD074672
:1024200005E082E0FFF77CFDC01B02287DD8306804
:102430008007F7D42078400768D5DFF8BCB10027C3
:102440000BF1380BDBF80000C0000BD4DBF80010F8
:1024500041F08051CBF80010DBF80000012700F0BC
:1024600080500090684E3068C00510D4306840F449
:1024700080703060FFF754FD009005E0FFF750FDDD
:102480000099401A022850D83068C005F6D55A4E37
:10249000A068683601280FD00528306810D020F0D9
:1024A00001003060306820F004003060A068B8B1EE
:1024B000FFF736FD00900FE0306840F00100F4E7D0
:1024C00040F004003060F7E7FFF72AFD0099411A59
:1024D00041F28830814266D830688007F4D50EE03A
:1024E000FFF71EFD009007E0FFF71AFD0099411A63
:1024F00041F28830814256D830688007F4D42FB139
:10250000DBF8001021F08051CBF80010A069D0B3A7
:10251000DAF800205146C2F38102022A4AD002288A
:10252000484607D0C8F8600000E03CE0FFF7F8FC40
:1025300004463BE04746C8F86000FFF7F1FC06465A
:1025400005E000BFFFF7ECFC801B02282BD82868B1
:102550008001F7D4D4E907010843A16A2B4A49084E
:1025600002EB0141626A41EA8211084394F82C109F
:1025700040EA01612048001F016001203866FFF732
:10258000CFFC044605E034E0FFF7CAFC001B02283C
:1025900009D828688001F7D52BE000BFFFF7C0FC01
:1025A000001B022802D90320BDE8F88F28688001AB
:1025B000F4D41EE00128F7D00868E26900F4800135
:1025C000914214D1226A00F03F0191420FD147F6A7
:1025D000C071626A0140914209D1A26A00F440319F
:1025E000914204D1E16A00F07060884201D001207C
:1025F000DAE70020D8E7000008380240003802403F
:1026000000004742800E4742007000400000FFFF7C
:1026100070B5040005D00025A56294F8510010B1F2
:1026200006E0012070BD84F85050204600F030F8DC
:10263000022084F851002068016821F04001016007
:10264000D4E901010843D4E9031211430843616945
:102650000843218B01F400710843E1690843216AB2
:102660000843A16A084321680860A069042101EABF
:102670001040616A0843216848602068C16921F4FC
:102680000061C1616565012084F85100002070BDC2
:1026900010B586B0044614216846FDF74DFE144976
:1026A0002068884221D113480021026842F4801238
:1026B0000260006800F4801005900E48143802682B
:1026C00042F020020260006800F0200005904FF404
:1026D000607000900220CDE90101032003900520E5
:1026E000049069460448FFF71FFB06B010BD0000C8
:1026F0000050014044380240001402402DE9F84FD8
:10270000044690F8500000270A9E1D4692468B46CC
:102710004FF0010901280ED0012084F85000FFF786
:10272000FFFB804694F85100616801280CD0B1F598
:10273000827F07D102E00220BDE8F88FA16809B9C5
:10274000042801D00227C2E0BBF1000F27D0BAF164
:10275000000F24D01DB394F85100042802D00520A6
:1027600084F8510000206065C4F838A0E587A5878B
:10277000C4F830B0E586A5862064606420680168EE
:10278000490603D4016841F040010160E068B0F5FA
:10279000006F606805D0E8B3012D46D07FE00127C7
:1027A00095E008B1012D39D1206B21680088C860FF
:1027B000206B801C2063E08E401EE0862EE02068A7
:1027C000816889070FD5E18E69B1B9F1010F0AD18E
:1027D000216B0988C160206B801C2063E08E401E45
:1027E000E0864FF0000920688168C9070CD0E18FAE
:1027F00051B1C068A16B0880A06B801CA063E08F02
:10280000401EE0874FF00109FFF78AFBA0EB0800AC
:10281000B04200E009E001D3701C50D1E08E0028E6
:10282000CDD1E08F0028CAD13FE0206B216800782D
:102830000873206B401C2063E08E401EE0862EE073
:102840002068816889070FD5E18E69B1B9F1010F60
:102850000AD1216B09780173206B401C2063E08E44
:10286000401EE0864FF0000920688168C9070CD03F
:10287000E18F51B1C068A16B0870A06B401CA063D0
:10288000E08F401EE0874FF00109FFF749FBA0EB06
:102890000800B04202D3701C01D010E07EB1E08E7F
:1028A0000028CDD1E08F0028CAD1424631462046CB
:1028B00002F00EFA28B101272020606507E0032707
:1028C00005E0A06818B92068C16880680090012000
:1028D00084F85100002084F8500038462CE77047F7
:1028E0007047000070B590F83C20012A32D00124D6
:1028F00080F83C40022280F83D2003685A689D68B9
:1029000022F070060A6832435A60134B02689A42FA
:1029100014D0B2F1804F11D0104B9A420ED0104B10
:102920009A420BD00F4B9A4208D00F4B9A4205D0D7
:102930000E4B9A4202D00E4B9A4204D1496825F0C0
:1029400080031943916080F83D40002180F83C10DD
:10295000084670BD022070BD000001400004004028
:1029600000080040000C004000040140004001400D
:102970000018004010B5040003D094F83D0010B1D9
:1029800007E0012010BD002084F83C00204600F044
:102990000DF8022084F83D00211D206802F0AAFAFB
:1029A000012084F83D00002010BD000010B586B065
:1029B000044614216846FDF7BFFC21680022264822
:1029C000B1F1804F14D0254A91422ED1016841F0D7
:1029D000020101600068002200F00200059005215C
:1029E0001D20FFF729FB1D20FFF718FB06B010BDC7
:1029F000016841F001010160006800F001000590EC
:102A000015481038016841F0010101600068022199
:102A100000F00100059001208DE80700CDE90320BA
:102A200069460F48FFF780F9E0E70E4A914207D167
:102A3000016841F004010160006800F0040009E051
:102A4000094A9142D2D1016841F008010160006851
:102A500000F008000590C9E740380240000400403B
:102A60000000024000080040000C00400168CA68F5
:102A700042F00102CA600068816801F0070106297E
:102A800003D0016841F0010101600020704770B57A
:102A9000044690F83C00012817D0012584F83C50EA
:102AA000022084F83D002068826822F0770222F438
:102AB0007F4282600868502830D00DDC20284DD03D
:102AC00005DC98B310283BD148E0022070BD3028C7
:102AD00044D0402834D139E0602828D0702806D06E
:102AE000B0F5805F2CD0B0F5005F29D10AE0CB684B
:102AF000D1E90121206802F077FA2068816841F06D
:102B0000770109E0CB68D1E90121206802F06CFA75
:102B10002068816841F48041816011E0CA68496899
:102B2000206802F035FB5021206807E016E0CA68F3
:102B30004968206802F03DFB6021206802F05EFADF
:102B400084F83D50002084F83C0070BDCA68496894
:102B5000206802F01DFB40212068EFE72268014653
:102B60001046EBE7704770B50446006801694FF006
:102B70000005C943890715D4C168C943890711D421
:102B8000E91E0161012020772068806980072046C6
:102B900002D0FFF7E7FF04E000F0ECF8204600F079
:102BA0006EF9257720680169C943490717D4C168C0
:102BB000C943490713D46FF0040101610220207753
:102BC0002068806910F4407F204602D0FFF7CAFFDA
:102BD00004E000F0CFF8204600F051F92577206896
:102BE0000169C943090716D4C168C943090712D44A
:102BF0006FF008010161042020772068C069800718
:102C0000204602D0FFF7AEFF04E000F0B3F8204604
:102C100000F035F9257720680169C943C90617D442
:102C2000C168C943C90613D46FF0100101610820BF
:102C300020772068C06910F4407F204602D0FFF75B
:102C400091FF04E000F096F8204600F018F925778F
:102C500020680169C943C90708D1C168C943C907C8
:102C600004D1891E0161204600F02CF92068016919
:102C7000C943090609D4C168C943090605D46FF0E0
:102C8000800101612046FFF72AFE20680169C943DF
:102C9000490609D4C168C943490605D46FF040010B
:102CA0000161204600F01EF920680169C9438906C8
:102CB0000BD4C168C943890607D46FF020010161B4
:102CC0002046BDE87040FFF70BBE70BD30B587B041
:102CD000044614216846FDF72FFB204A2168002492
:102CE0001F48022591420FD1016841F0080101609F
:102CF0000068694600F0080005904FF470400090AD
:102D0000CDE90154174823E0174A914224D10168C4
:102D100041F480710160016801F4807105910168DE
:102D200041F0800101600068694600F08000059074
:102D300001200090CDE901540C48CDE90345FEF790
:102D4000F3FF4FF4E0500090CDE901540848694684
:102D5000CDE90345FEF7E8FF07B030BD00080040AD
:102D600030380240000C0240000C004000200240BD
:102D7000001C0240704770B5044690F83C000D46B8
:102D800001280DD0012684F83C60022084F83D0023
:102D900042B1042A18D0082A2AD00C2A4DD139E091
:102DA000022070BD206802F031F92068816941F08D
:102DB000080181612068816921F004018161206836
:102DC00081692A69114311E0206802F04FF92068F7
:102DD000816941F4006181612068816921F4806129
:102DE0008161206881692A6941EA0221816124E0C8
:102DF000206802F071F92068C16941F00801C161E1
:102E00002068C16921F00401C1612068C1692A6993
:102E1000114311E0206802F093F92068C16941F480
:102E20000061C1612068C16921F48061C1612068CD
:102E3000C1692A6941EA0221C16184F83D6000202C
:102E400084F83C0070BD10B5040003D094F83D0038
:102E500010B107E0012010BD002084F83C0020469E
:102E600000F00CF8022084F83D00211D206802F0DB
:102E700041F8012084F83D00002010BD70477047E4
:102E800010B504460068012202F098F80B4920684A
:102E9000884202D00A49884203D1416C41F4004182
:102EA00041642068816801F00701062903D00168A8
:102EB00041F001010160002010BD00000000014050
:102EC00000040140054A0168914201D1FFF72EB884
:102ED0000349884201D101F01DBD70470000014047
:102EE000980400207047704770B502680446106867
:102EF000D168536910F00F0F52D003F0010501F4AF
:102F000090762E435FD0C20705D0CA0503D5E26B89
:102F100042F00102E263420705D5DA0703D0E26B13
:102F200042F00202E263820705D5DA0703D0E26BC2
:102F300042F00402E263020707D501F020022A43AF
:102F400003D0E26B42F00802E263E26B002A33D066
:102F5000800604D5880602D5204602F07CFA206857
:102F60004069E16BC0F38010090700D428B3204604
:102F700002F05AFA2068416949061AD5416921F0E0
:102F800040014161606BA0B11B490165606BFEF7B8
:102F9000E6FC002810D0606B016DBDE8704008476A
:102FA000830610D58B060ED52046BDE8704002F092
:102FB00052BA2046FFF797FF70BD2046FFF793FFF8
:102FC0000020E06370BD030606D50B0604D520463D
:102FD000BDE8704002F01EBB4006F3D54806F1D5AF
:102FE000D168204621F04001D160202184F83910B9
:102FF00000F029FA70BD00008953000810B504469E
:1030000000F076F92068C16841F01001C16010BD80
:1030100070B5040004D094F83900002510B106E022
:10302000012070BD84F83850204600F023F8242099
:1030300084F839002068C16821F40051C16020463D
:1030400002F054FA2068016921F49041016120687E
:10305000416921F02A0141612068C16841F40051B1
:10306000C160E563202084F8390084F83A0000202C
:1030700070BD00002DE9F04F87B005461421684669
:10308000FDF75AF98E488E49DFF830822F68002408
:10309000103902230322DFF82CE206154FF0010B52
:1030A0004FF0080C4FF480794FF4403A474536D141
:1030B000076847F080470760006800F0804005908F
:1030C000086840F0100008600868694600F01000C9
:1030D0000590D0018DE80908CDE9032C7046FEF774
:1030E00023FE7A4F784807F1180838604FF02060C7
:1030F000C7E90104C7E903467C6188E81006384641
:103100007C62FEF70FFD08B1FDF790FE6F630022B1
:1031100005215220BD63FEF78FFF522021E0DFF82A
:10312000B081474522D1046844F00044046000683F
:1031300000F000400590086840F010000860086842
:103140008DE80C0800F01000CDE904C06946039238
:103150007046FEF7E9FD002205215320FEF76CFFC3
:103160005320FEF75BFF07B0BDE8F08FDFF8648106
:10317000DFF84CB14FF0070E0BF1040B47453AD185
:10318000DBF8007047F01007CBF80070DBF80000A8
:1031900000F010000590086840F002000860086820
:1031A000694600F002000590C0208DE81900CDE9C5
:1031B000032E4948FEF7B8FD444F48486037386051
:1031C0004FF00060C7E90104C7E9034607F11800A2
:1031D0007C6180E8100638467C62FEF7A3FC08B1EB
:1031E000FDF724FE6F63002205212520BD63FEF755
:1031F00023FF2520B5E7DFF8E88047451FD10568A4
:1032000045F400350560006800F40030059008685A
:1032100040F0080008600868694600F00800059062
:1032200060208DE81900CDE9032E2E48FEF77CFDC5
:10323000002205212620FEF7FFFE262091E72A48DE
:10324000874290D1DBF8007047F02007CBF8007080
:10325000DBF8000000F020000590086840F0400016
:1032600008600868694600F0400005904FF484400B
:103270008DE81900CDE9032C1C48FEF755FD134FCE
:103280001648C037183838608005C7E90104C7E917
:10329000034607F118007C6180E8100638467C621E
:1032A000FEF740FC08B1FDF7C1FD6F630022052168
:1032B0004720BD63FEF7C0FE472052E7007800407C
:1032C000403802400010024058600240980600203A
:1032D000007C0040001001400004024040640240B5
:1032E00000440040000C024000140140001802405D
:1032F000F8B5044690F83A0020283CD1C1B3BAB3DF
:1033000094F83800012836D0012084F83800A162F2
:10331000A2850025E563222084F83A00636B1748F4
:10332000D863636B16481864636B1648D864606B87
:10333000134605650846666B216802463046091D3E
:10334000FEF77DFC206801684168009184F83850E0
:10335000C16841F48071C1602068416941F0010198
:1033600041612068416941F0400141610020F8BDA0
:10337000FFE70120FBE70220F9E70000E353000824
:103380001F54000899530008704770472DE9F8430F
:10339000044690F839001F4616460D46202850D1A5
:1033A000B5B1AEB194F8380001284AD0012084F8B4
:1033B00038004FF00008C4F83C80212084F8390020
:1033C000FEF7AEFDA6848146E68484F8388026E0C8
:1033D0000120BDE8F883E08C401EE084A0684B46E5
:1033E000B0F5805F4FF000024FF08001204600975B
:1033F00003D002F040F9E8B90DE002F03CF9C8B999
:1034000028882168C0F308004860206908B16D1C55
:1034100005E0AD1C03E0216815F8010B4860E08C65
:103420000028D8D14B46002240212046009702F0C8
:1034300022F908B10320CCE7202084F839000020CD
:10344000C7E70220C5E77047FEE710B530216A20C4
:1034500000F0EEF90A20FEF729FC0D21242000F0EF
:10346000E7F90A20FEF722FC0E21282000F0E0F9FF
:103470000A20FEF71BFC8E21312000F0D9F90A202A
:10348000FEF714FC01210B2000F07BF80A20FEF768
:103490000DFC002000F059F8102801D0012010BDCB
:1034A00001210B2000F06DF80A20FEF7FFFB002140
:1034B0000A2000F066F80A2000F047F808B1022060
:1034C00010BD0A20FEF7F2FB00210B2000F059F896
:1034D0000B2000F03AF808B1032010BD0A20FEF7D7
:1034E000E5FB2421412000F04CF8412000F02DF8AC
:1034F000242801D0042010BD0A20FEF7D7FBC021EC
:10350000422000F03EF8422000F01FF8C02801D011
:10351000052010BD0A20FEF7C9FB00212A2000F07B
:1035200087F90A20FEF7C2FB0021342000F080F961
:103530000A20FEF7BBFB062203210E2000F07EF8D6
:103540006420FEF7B3FB002010BD10B50146322009
:1035500000F06EF90A20FEF7A9FB8021342000F06C
:1035600067F90A20FEF7A2FB352000F001F90446B6
:103570000021342000F05CF90A20FEF797FB20467A
:1035800010BD70B50D46044600212A2000F050F908
:103590000220FEF78BFB2146292000F049F902208A
:1035A000FEF784FB2946642000F042F90220FEF772
:1035B0007DFB81212A2000F03BF9BDE870400A2004
:1035C000FEF774BBF7EE001A71EEC11A21EE800A05
:1035D00000EE810A7047000030B585B06420FEF728
:1035E00065FB752000F0C4F812490024142288708D
:1035F00011496846FCF787FE4FEA0D0505EB4400CC
:10360000417815F8140000F013F90120FEF74EFB85
:10361000641CE4B20A2CF1D3032000F004F9022068
:1036200000F0FCF8FFF711FF00F050F805B00020A3
:1036300030BD00009C000020A46A000870B50E4652
:10364000044601461546282000F0F2F80220FEF755
:103650002DFB0A21292000F0EBF80220FEF726FBC3
:103660000121642000F0E4F80220FEF71FFB44F083
:103670008001252000F0DCF80220FEF717FB314620
:10368000262000F0D5F80220FEF710FB032134209D
:1036900000F0CEF80220FEF709FB0321672000F0BE
:1036A000C7F80220FEF702FB81212A2000F0C0F8B3
:1036B0000620FEF7FBFA45F08001272000F0B8F85D
:1036C000BDE870400220FEF7F1BA00002DE9F0419C
:1036D000264E002706F10E044FF496750E2223495C
:1036E0003B2000F06DF83188A08A49BA0844A082D6
:1036F0007188E08A49BA0844E082B188208B49BACF
:10370000084420833189608B49BA084460837189F9
:10371000A08B49BA0844A083B189E08B49BA084418
:10372000E0830520FEF7C2FA7F1CAF42D6DBB4F976
:10373000140090FBF5F0A082B4F9160090FBF5F0B0
:10374000E082B4F9180090FBF5F02083B4F91A0078
:1037500090FBF5F000B2608390FBF5F0A083B4F924
:103760001E0090FBF5F0E083BDE8F0816448002086
:10377000F8B5104E0446002240213046FEF7CAFB41
:1037800044F080000C4C3725621C20700123511E30
:103790000A480095FEF7B2FF621C0123511E07483C
:1037A0000095FEF7ABFF012240213046FEF7B2FB49
:1037B0006078F8BD001402409C0000200004002046
:1037C000F8B5134F15460E460446002240213846F0
:1037D000FEF7A0FB0F4944F08000372408705231F7
:1037E000A1F151020870012352390B480094FEF7F1
:1037F00085FF08492B463246523107480094FEF7B0
:103800007DFF012240213846FEF784FB0020F8BDF1
:10381000001402409C00002000040020C006010E9D
:103820001C2000F005B8C006010E1B20AFF300807D
:10383000F8B5114F0E460446002240213846FEF7E7
:1038400069FB04F07F000D4C3725621C20700123BA
:10385000511E0B480095FEF751FF2670621C012394
:10386000511E07480095FEF749FF012240213846C6
:10387000FEF750FB0020F8BD001402409C00002021
:10388000000400200F4810B50D4901600621416079
:1038900000214FF480328160C0E903124FF44012DE
:1038A0004261017641768176C17601774177FDF7F5
:1038B0005AFE002803D0BDE81040FDF7B7BA10BD8E
:1038C000006400405C0100200F4810B50D49016004
:1038D0000621416000214FF480328160C0E903126B
:1038E0004FF440124261017641768176C1760177CC
:1038F0004177FDF738FE002803D0BDE81040FDF702
:1039000095BA10BD0068004084010020154808B534
:10391000016841F400110160016801F40011009197
:10392000016841F4800101600068002200F4800019
:10393000009005210E20FEF77FFB0E20FEF76EFBA8
:10394000002205213920FEF777FB3920FEF766FBC0
:10395000002205213A20FEF76FFBBDE808403A201F
:10396000FEF75CBB3038024010B5B8B01C222C49C1
:103970006846FCF7C8FC0021684602F051F8294C63
:1039800027491C22E0611C3107A8FCF7BCFC002180
:1039900007A802F045F8224920601C2238310EA801
:1039A000FCF7B1FC00210EA802F03AF81C49606057
:1039B0001C22543115A8FCF7A6FC002115A802F022
:1039C0002FF81749E0601C2270311CA8FCF79BFC03
:1039D00000211CA802F024F81149A0601C228C319F
:1039E00023A8FCF790FC002123A802F019F80C4949
:1039F00020611C22A8312AA8FCF785FC00212AA8F6
:103A000002F00EF8064960611C22C43131A8FCF7AF
:103A10007AFC002131A802F003F8A06138B010BD93
:103A2000A4660008040000202DE9F04786B01421A8
:103A30006846FCF781FC4E480024016841F0100103
:103A40000160016801F010010591016841F0400139
:103A50000160016801F040010591016841F0010138
:103A60000160016801F001010591016841F0020166
:103A70000160016801F002010591016841F008014F
:103A80000160016801F008010591016841F0200121
:103A90000160016801F020010591016841F4807125
:103AA0000160016801F480710591016841F08001B5
:103AB000016000682F4F00F0800005900022302147
:103AC0003846FEF727FADFF8B0800022432140464F
:103AD000FEF720FADFF8A49000223C214846FEF7CA
:103AE00019FADFF89CA04FF4FF76012231465046C8
:103AF000FEF710FA012291034046FEF70BFA302040
:103B000000900125CDE90154694638460394FEF73B
:103B10000BF944F243000090CDE901546946404658
:103B20000394FEF701F93C200090CDE90154694669
:103B300048460394FEF7F8F80096CDE9015469462B
:103B400050460394FEF7F0F8202000900D48CDE990
:103B5000010469460C48FEF7E7F80022052117200A
:103B6000FEF76AFA1720FEF759FA06B0BDE8F087AB
:103B7000303802400010024000140240001C024095
:103B8000001802400000311000000240104810B53B
:103B90000E4901604FF48271416000218160C16073
:103BA0004FF400720161C0E905123022C0E907211B
:103BB000416281620A21C162FEF72AFD002803D01A
:103BC000BDE81040FDF732B910BD000000500140C3
:103BD0000004002010B586B000241748009401941A
:103BE0000294039404944FF080410594C0E90014BA
:103BF000611EC0E9024104618461FEF7BBFE08B1A9
:103C0000FDF714F94FF40050CDE900040294694621
:103C100009480394FEF73BFF08B1FDF707F9049448
:103C200004A905480594FEF75DFE002801D0FDF7C4
:103C3000FDF806B010BD00005804002010B586B095
:103C400000241748009401940294039404941349A7
:103C50000594016040F24731C0E901146321C0E9D5
:103C600003148461FEF786FE08B1FDF7DFF84FF418
:103C70008050009069460A48FEF709FF08B1FDF739
:103C8000D5F8049404A906480594FEF72BFE0028F5
:103C900001D0FDF7CBF806B010BD000000040040D5
:103CA0009804002010B58EB000240794089409945D
:103CB0000A940B941C2168460C94FCF73DFB2B489E
:103CC0002949016040F24731C0E9011440F2CF7147
:103CD000C0E903148461FEF74DFE08B1FDF7A6F8B4
:103CE0004FF48050079007A92048FEF7D0FE08B196
:103CF000FDF79CF81D48FFF7A6F808B1FDF796F808
:103D00000B940BA919480C94FEF7ECFD08B1FDF7D4
:103D10008DF86020CDE90004029400226946134822
:103D20000494FFF728F808B1FDF780F804226946EB
:103D30000E48FFF720F808B1FDF778F80822694629
:103D40000A48FFF718F808B1FDF770F80C22694629
:103D50000648FFF710F808B1FDF768F80348FEF7CA
:103D6000B5FF0EB010BD000000080040D8040020D0
:103D700010B58EB000240794089409940A940B940B
:103D80001C2168460C94FCF7D7FA2B48294901609E
:103D900040F24731C0E9011440F2CF71C0E9031489
:103DA0008461FEF7E7FD08B1FDF740F84FF480505D
:103DB000079007A92048FEF76AFE08B1FDF736F81C
:103DC0001D48FFF740F808B1FDF730F80B940BA938
:103DD00019480C94FEF786FD08B1FDF727F860201E
:103DE000CDE9000402940022694613480494FEF7CA
:103DF000C2FF08B1FDF71AF8042269460E48FEF723
:103E0000BAFF08B1FDF712F8082269460A48FEF722
:103E1000B2FF08B1FDF70AF80C2269460648FEF722
:103E2000AAFF08B1FDF702F80348FEF74FFF0EB0F6
:103E300010BD0000000C0040180500200C4810B513
:103E40000A4901604FF4E1314160002181600C2298
:103E5000C160C0E904128161C161FFF7D9F800288F
:103E600003D0BDE81040FCF7E1BF10BD0078004072
:103E7000580500200C4810B50A4901604FF4E131A3
:103E80004160002181600C22C160C0E9041281619F
:103E9000C161FFF7BDF8002803D0BDE81040FCF772
:103EA000C5BF10BD007C0040980500200D4810B52E
:103EB0000B4901600C49416000214FF48062816030
:103EC000C0E903120C22C0E90521C161FFF7A0F887
:103ED000002803D0BDE81040FCF7A8BF10BD0000CB
:103EE00000100140D8050020A08601000C4810B544
:103EF0000A4901604FF4E1314160002181600C22E8
:103F0000C160C0E904128161C161FFF781F8002836
:103F100003D0BDE81040FCF789BF10BD004400404D
:103F2000180600200C4810B50A4901604FF4E13131
:103F30004160002181600C22C160C0E904128161EE
:103F4000C161FFF765F8002803D0BDE81040FCF719
:103F50006DBF10BD0014014058060020FEE77047F9
:103F600008B54FF47A7001F048FD02F0CFFA2A4C00
:103F70002A4D0090072000F0D5FC01F02DF9FCF748
:103F800055FD207BC00701D0012200E00022022164
:103F90002846FDF7BFFF207B800701D5012200E006
:103FA000002204212846FDF7B5FF207B400701D5FC
:103FB000012200E0002208212846FDF7ABFF207B0C
:103FC000000701D5012200E0002210212846FDF75C
:103FD000A1FF207BC00601D5012200E000222021A4
:103FE0002846FDF797FF207B800601D5012200E0DF
:103FF000002240212846FDF78DFF207B400601D599
:10400000012200E0002280212846FDF783FF0A21DB
:10401000684601F0F9FCADE7D048002000180240E6
:104020000449002048708870C87048600248886061
:10403000FEF71CBDD04800209804002070B5040095
:104040009FED5B2A23D084ED050A70EEC01AC4ED03
:10405000040A30EEC00AC4ED081A94ED111AB0EE4D
:10406000C00AB5EEC01AF1EE10FA04D0B4EEC10ADF
:10407000F1EE10FA0BDCD4ED120AF5EEC00AF1EE07
:1040800010FA07D0B4EEE00AF1EE10FA02D2B0EE68
:10409000420A70BD21789FED471A04F1280511B13D
:1040A000012936D076E094ED010A20EE210A84ED54
:1040B000090A94ED0A0AD4ED020A00EEA10A84ED81
:1040C0000A0A94ED070AD4ED030A31EEC00A60EE45
:1040D000200AC4ED0B0A94ED0C0AFFF773FA84ED85
:1040E0000B0A84ED0C0A94ED0E0A284601F043FCFD
:1040F00094ED090AD4ED0A0A04F14C0030EE200ACE
:10410000D4ED0B0A30EE200A84ED130A94ED100A68
:104110003EE094ED070A94ED012A71EEC00A60EECC
:10412000820AC4ED090AD4ED020A60EEA10AC4EDC8
:104130000A0AF0EE000A40EE601A94ED060AD4ED89
:10414000030A31EE800A60EE200AC4ED0B0A94EDFA
:104150000C0AFFF737FA84ED0B0A84ED0C0A94ED94
:104160000E0A284601F007FC94ED090AD4ED0A0A6C
:1041700004F1500030EE200AD4ED0B0A30EE200A94
:10418000D4ED140A30EE200A84ED140A94ED100ADE
:1041900001F0F1FB94ED080A84ED070A84ED060AAC
:1041A000207810B194ED140A70BD94ED130A70BD1F
:1041B000000000009A99193F00281BD0C0ED0E0A9C
:1041C00080ED100A9FED0C0A017080ED080A80ED69
:1041D000070A80ED060A80ED0C0A80ED0B0A80EDDF
:1041E0000A0A80ED090A80ED140A80ED130A001D09
:1041F00080EC031A7047000000000000017A437A47
:10420000C1EBC10101EB4102104901F8223090EDF0
:10421000030A01EB820181ED010A90ED040A81EDB0
:10422000020A90ED050A81ED030A90ED060A81ED80
:104230000D0A90ED070A81ED0E0A90ED080A81ED56
:104240000F0A90ED090A81ED100A7047E84400203A
:104250002DE9F041BEB0A5225C4C8DF8C8201E238C
:104260008DF8C930A1788DF8CA104D1CA5708DF855
:10427000D0000446C0EBC000DFF854C1102700EBAB
:1042800040008DF8CC701CF820500CEB80008DF8AD
:10429000D15090ED010AE8468DED350A90ED020A05
:1042A00000268DED360A90ED030A8DED370A90ED6C
:1042B0000D0A8DED380A90ED0E0A8DED390A90ED5C
:1042C0000F0A8DED3A0A90ED100A40468DED3B0A3B
:1042D0008DF800208DF801308DF802100321FF22A7
:1042E000FCF7BCFD8DF804708DF805408DF80300D7
:1042F0008DF80650072432A845468119761C097BA3
:104300002955641CF6B2E4B2042EF6D300214218FB
:10431000491C127C2A55641CC9B2E4B20429F6D3A4
:1043200000214218491C127D2A55641CC9B2E4B20E
:104330000429F6D300214218491C127E2A55641C18
:10434000C9B2E4B20429F6D300214218491C127FF5
:104350002A55641CC9B2E4B20429F6D300214218DC
:10436000491C92F820202A55641CC9B2E4B20429E1
:10437000F5D300214218491C92F824202A55641CC8
:10438000C9B2E4B20429F5D34FF6FF72214668465C
:10439000FCF74EFD2855641CE1B2000A6854491C24
:1043A000CEB200240B4F0BE0386801684906FCD5FB
:1043B00029190A2301220748FEF7E8FF641CE4B22A
:1043C000B442F1D33EB0BDE8F08100002C010020E2
:1043D000E844002018060020364A30B4A2F12C032D
:1043E000107818705078587090789870D078D8708D
:1043F00010791446187164790021E8B3012856D168
:104400001C729079587207205D18145C401C491C7E
:104410002C730429F8DB0021145C5D18401C491C36
:104420002C740429F8DB0021145C5D18401C491C25
:104430002C750429F8DB0021145C5D18401C491C14
:104440002C760429F8DB0021145C5D18401C491C03
:104450002C770429F8DB0021145C5D18401C491CF2
:1044600085F820400429F7DB0021145C5D18401C0E
:1044700085F82440491C00E00FE00429F5DB002109
:10448000145C5D18401C491C85F828400229F7DBA4
:10449000084830BC2C38FFF7B1BE1C7206205D18EE
:1044A000145C401C491C85F828400229F7DB30BC0D
:1044B00070470000344F00202DE9F8432F49086869
:1044C00002682F4C92064FF0000502D402681207D2
:1044D00034D54068884621782A4BC0B2012611B1F4
:1044E000012906D020E0A5281ED12670187066701C
:1044F0001AE06278012A2CD0022A30D00827032A39
:1045000031D0A1888A420FD29854521CD0B2607028
:10451000884209D11B4801F06FF910B1FFF75CFF29
:10452000E670A78065702570D8F800206FF0200134
:104530001160D8F80000016840680090E078002819
:1045400005D010482C38007AFFF782FEE570BDE8F0
:10455000F883587002216170C01DA080E4E7987054
:1045600003206070E0E7D8700420607001460548C1
:1045700001F060F90028D4D0D6E70000180600202A
:104580002C010020344F002010B50B4C00220421D8
:104590002046FDF7BFFC012208212046FDF7BAFCAA
:1045A000012210212046FDF7B5FC20460122BDE87E
:1045B00010402021FDF7AEBC001C02402DED028B07
:1045C00082B001F0A3FF0F4C9FED0F8ACDF80000E1
:1045D00094ED050AF0EE480AB8EEC00AF0EE603A33
:1045E000B0EE603AF0EE602AB0EE602AF0EE601AAB
:1045F000B0EE601A01F031F90521684601F004FAC5
:10460000E6E70000E04800200000000017484FF4F3
:10461000A561B0F9002002F525728A4217D8B0F9D9
:10462000022002F525728A4211D8B0F9042002F561
:1046300025728A420BD8B0F9062002F525728A420B
:1046400005D8017A19B1417A09B1002070470021DB
:10465000018041808180C1800172417241818181EC
:10466000C18101744174418201207047D04E002005
:1046700038B51C490A68D36823F40053D3604A6BE9
:104680001268136823F0010313604A6B12685060CC
:1046900008680268426800924A6B134C13684FF432
:1046A0000012A34202D9104B4C3B04E00F4CA34232
:1046B00003D90D4B503B1A6008E00C4D0B4C603D8C
:1046C000B83CAB4201D9E26000E0A260C26842F4AB
:1046D0000052C260486B0068016841F0010101604E
:1046E00038BD0000D805002058640240B860024080
:1046F000C82202490248FEF781BC0000084E002093
:10470000580600204FF0FF342146012001F0D6FB6F
:104710000128F9D1022000F005F9F5E778B41C4929
:104720000A68D36823F40053D3604A6B1268136895
:1047300023F0010313604A6B126850600868026836
:10474000426800924A6B134C1368E214A34202D9E8
:10475000104B4C3B04E0104CA34203D90D4B503B93
:104760001A6008E00C4D0C4C603DB83CAB4201D9DE
:10477000E26000E0A260C26842F40052C260486B8E
:104780000068016841F00101016078BCFFF7B0BF2B
:104790005806002058640240B860024030B52F48E7
:1047A0002F492E4C10F84D2F0A7042884A80D0F8BD
:1047B0001F2000EE102A81ED010AB0F823200A81A3
:1047C000028B4A8102898A84C289CA84828A0A85C4
:1047D00042894A85028A8A85C28ACA85B0F825201C
:1047E0008A81B0F82720CA81B0F829200A8290F87F
:1047F0003F5094F88E30D4F88F2094F88D404D3887
:10480000012D02D0022D0BD00EE0012C02D0022C83
:1048100003D009E08B748A6106E0CB74CA6103E0BF
:10482000022C01D10B750A62B0F8932021F8302FC9
:10483000B0F897204A8010F8672FC2F340034B71FD
:1048400002F001030B71C2F380028A7190F8992083
:10485000CA7190F89A00087230BD0000844A0020A6
:104860009C4B002038B51F4C20680168C90638D51C
:10487000016840680090606B0068016821F00101E8
:104880000160606B00684068174DC0F1C8001749AF
:10489000688101F5617000F0FDF81548007B800625
:1048A00005D5C820FFF73AFF2869401C2861114848
:1048B0000D490C31006801F08FFCE86838B10E49F1
:1048C0004FF080500860BFF34F8FBFF36F8F616B65
:1048D000C82009684860606B0068016841F0010108
:1048E000016038BD580600200C010020844A0020D9
:1048F000D04800200800002004ED00E010B5044678
:10490000FCF720FB024800EB840080ED000A10BD9C
:104910009448002002484168491C416070470000EB
:10492000D048002010B50446FCF70CFB024800EB11
:10493000840080ED000A10BDB04800202422024906
:10494000024800F0E1BE0000E44E0020D80500203F
:10495000244D254C4FF0FF363146012001F0AEFAD0
:104960000128F9D10020FFF7DDFF287A012801D0C6
:10497000022800D1207094F90010012901D10328E8
:1049800002D0022903D009E0A078401C03E00328EC
:1049900004D1A078401EA070287A207094F90200FB
:1049A000002801DC002002E0042801DB0420A070C4
:1049B000687A012801D0022800D1607094F90110B2
:1049C000012901D1032809D00229C5D10328C3D167
:1049D000E078401EE070687A6070BDE7E078401CC7
:1049E000F8E70000D04E002058010020F0B5002864
:1049F0004ED000294CD00278437842EA0322C2F319
:104A00000A020A8043788478DB0843EA4413C3F33C
:104A10000A034B808478C578A40944EA85040579A3
:104A200044EA8524C4F30A048C80057946796D082C
:104A300045EAC615C5F30A05CD804679B6090E725A
:104A40004679C6F301164E728679C77946EA07267B
:104A50004E81067A477A46EA07268E81867AC77A99
:104A600046EA0726CE81067B0E74467B4E74867B13
:104A7000C07BA2F5806246EA002048820A80A3F546
:104A800080634B80A4F580648C80A5F58065CD8023
:104A9000F0BD00002DE9F0470C46070070D000255E
:104AA00040F20228894E01E1785DA52869D1781984
:104AB00081460168216001792171B0F80510E1801B
:104AC000B4F80110093189B28A4600F095FE002839
:104AD00057D04846052100F0ADFE002851D0E088AF
:104AE0004146A0F20222884278D017DC40F201123F
:104AF000A0F20111904254D006DC06282DD2DFE846
:104B000000F0D0222D31374101294FD0032952D056
:104B1000042955D0B1F5807F1FD157E0052A71D007
:104B200008DC012A68D0022A71D0032A74D0042A32
:104B300013D177E0062A68D0072A67D0082A70D0F8
:104B4000FF2A0AD196E0484650F8071FA160416845
:104B5000E16001892182807AA074A2E099F80700BF
:104B6000E0749EE009F10701202204F1140032E014
:104B7000B9F80710A18699F8090084F8360090E08A
:104B8000A1E091E0484650F8071FC4F8371041688B
:104B9000C4F83B100189A4F83F10807A84F84100E2
:104BA0007FE0D9F80700C4F842007AE0D9F807009E
:104BB000C4F8460075E0B9F80700A4F84A0070E0B0
:104BC00099F8070084F84C006BE007E009F1070151
:104BD0001B2204F14D00FBF796FB62E009F107018F
:104BE000102204F16800FBF78EFB0520FFF786FE1C
:104BF0007069401C706154E009F10701102204F152
:104C00007800E8E713E002E006E01CE024E099F811
:104C1000070084F8880044E0B9F80700A4F8890088
:104C20003FE01EE099F8070084F88B0039E0484621
:104C300050F8071FC4F88C108188A4F89010807970
:104C400084F892002DE0484650F8071FC4F89310EE
:104C50008088A4F8970024E0D9F80700C4F89900E8
:104C60001FE0484650F8071FC4F89D108088A4F83C
:104C7000A10016E0484650F8072FC4F8F0208088BD
:104C8000A4F8F400B4F8F000A0F50072013A15D0D1
:104C9000884203D199F80D0084F80101B069401CE5
:104CA000B06105EB0A00C5B26D1CEDB2708985429A
:104CB000FFF4FAAEBDE8F047FFF770BD99F80D00BC
:104CC00084F80001EAE7BDE8F08700000C0100204D
:104CD00038B504461248134B0068B0FBF3F04FF4AC
:104CE0007A73584300906068B0F5827F0DD10B460F
:104CF000009200228021204600F016F870B1606D0D
:104D000040F020006065032038BD009830B1401E9F
:104D1000009020688068C0430006F6D5002038BDAA
:104D20003400002000366E012DE9F0411D46174683
:104D30000E460446DDF8188008E0681C06D0FDF732
:104D4000EFF8A0EB0800A8420BD255B120688068AC
:104D500036EA000030D00020B842EED10020BDE895
:104D6000F0812068416821F0E00141606068B0F5A1
:104D7000827F0BD1A068B0F5004F02D0B0F5806FF4
:104D800004D12068016821F040010160A06AB0F5FB
:104D9000005F09D12068016821F40051016020689A
:104DA000016841F400510160012084F851000020A5
:104DB00084F850000320D2E70120CDE700F00CB9C1
:104DC000084810B50068016841F001010160002148
:104DD0000448FEF755F8BDE8104004210148FEF7ED
:104DE0004FB800001805002008B501F08FFB074DF3
:104DF0004FF480444FF47A76009021462846FDF720
:104E000082F83146684600F0FFFDF6E700140240E4
:104E100010B5502080F31188BFF34F8FBFF36F8F11
:104E200001F07AFB18B104494FF08050086000206F
:104E300080F3118810BD000004ED00E030B593B0A0
:104E400030216846FBF778FA14210CA8FBF774FAB6
:104E500019480025016841F080510160006800F0A8
:104E6000805011901548016841F44041016000688C
:104E7000022400F4404011900120009000040190B1
:104E80008001CDE9064006200890A820CDE909045C
:104E900004200B906846FDF70DFA0CA90F2081E85D
:104EA00031004FF4A0500F90E002109005210CA8A3
:104EB000FDF7F4F813B030BD4038024000700040F8
:104EC0000548016841F47001016003494FF000603A
:104ED000803908607047000088ED00E00148FDF768
:104EE00042BE0000B80700200148FDF73CBE0000AC
:104EF00098040020F0B50268254C264D264E274F19
:104F0000274B4FF0804CA04209D0604507D0A84203
:104F100005D0B04203D0B84201D0984204D122F06B
:104F2000700E4A6842EA0E02A0421BD0604519D0BA
:104F3000A84217D0B04215D0B84213D0984211D031
:104F4000184DA8420ED0184DA8420BD0174DA842BC
:104F500008D0174DA84205D0164DA84202D0164DD4
:104F6000A84203D122F44075CA682A434D6922F051
:104F700080022A4302608A68C2620A688262A04292
:104F800001D0984201D10969016301214161F0BD5D
:104F9000000001400004004000080040000C0040F8
:104FA000000401400040014000440140004801402D
:104FB00000180040001C00400020004010B501F027
:104FC0001F030121046A99408C430462016A9A40DC
:104FD0001143016210BD0000024A13685863106853
:104FE000816370471805002010B5846842EA0322E7
:104FF00024F47F440A432243826010BD826822F079
:1050000070020A4342F0070181607047F0B5026AFE
:1050100022F001020262036A42688469124E24F09F
:1050200073050C682C4323F002058B682B430D4D50
:10503000A84201D0B04205D123F00807CB683B431A
:1050400023F00403A84201D0B04205D14D6922F4F7
:10505000407215438A692A4342608461496841630A
:105060000362F0BD0000014000040140F0B5026A97
:1050700022F010020262026A436884690D6824F417
:10508000E64444EA05248D6822F0200242EA051233
:105090000F4D104EA84201D0B04206D1CF6822F089
:1050A000800242EA071222F04002A84201D0B04238
:1050B00007D14D6923F4406343EA85038D6943EAD0
:1050C000850343608461496881630262F0BD00002A
:1050D0000000014000040140F0B5026A22F4807231
:1050E0000262026A4368C46922F4007224F0730504
:1050F0000C68124E2C438D6842EA05220E4DA842E0
:1051000001D0B04206D1CF6822F4006242EA072201
:1051100022F48062A84201D0B04207D14D6923F445
:10512000405343EA05138D6943EA05134360C461A4
:105130004968C1630262F0BD000001400004014003
:1051400030B5026A22F480520262046A4268C3697E
:105150000D6823F4E64343EA05238D6824F40054E4
:1051600044EA0534084DA84202D0084DA84204D1B3
:105170004D6922F4804242EA85124260C361496867
:105180000164046230BD00000000014000040140E1
:1051900010B5036A046A24F001040462846924F0EF
:1051A000F00444EA021423F00A020A438461026212
:1051B00010BD10B5036A23F0100303628369046A0B
:1051C00023F4704343EA023224F0A00343EA0111BE
:1051D0008261016210BD000070B50024FBF7B2FED1
:1051E0000D4B0E4D03F120015FF0010003EB840233
:1051F000D2ED000A70EE600A10EE902AAA424A7BB5
:1052000000FA04F601DD324300E0B243641C24B22C
:105210004A73082CEADB70BDB04800200000C84289
:1052200008B500F089F801F071F93B4FDFF8ECB0F8
:105230003B4C3C4DDFF8F0904FF4C87800264FF01F
:10524000010A00900420FFF76DFBD7F88400A860E6
:10525000B7F870002882687801283DD194F90700DA
:10526000012803D0E178012915D035E0A078012884
:105270001AD031E0E06909E0012204212B48FCF753
:1052800049FEA5F812B0E069401CE06150280FDD2E
:10529000A671E6610EE0264A216A91421CDD95F96D
:1052A0001510491C814217D1A0790128E4D0E1E70B
:1052B000A07988B9A5F81280A069401CA06140457A
:1052C0000ADD002204211948FCF724FEE079401C85
:1052D000E07184F806A0A661B5F9120000EE100A8C
:1052E000B5F91000F8EEC00A00EE100A4846B8EE14
:1052F000C00AFEF7A3FE85ED010ABDEEC00A00223A
:10530000114610EE100A03B20A48FBF795FE02217F
:10531000684600F079FB95E7E048002070FEFFFF4B
:1053200034010020FC4F002038460020001C0240C1
:10533000E05EF8FF5C0100209FED062ADFED061A13
:10534000B2EE041ADFED050A9FED050A00210548BB
:10535000FEF732BF000000009A99993E0000FA441F
:1053600000803B453846002010B50348FDF7BCFDE2
:10537000BDE8104000F07CBA580500200148FDF758
:10538000B3BD00009805002010B5806B0021C185D9
:10539000C184FDF7A8FD10BD70B5846B206840691D
:1053A00094F83910C0F3C0100025212904D118B198
:1053B000E584204600F046F82068406994F83A10E9
:1053C000C0F38010222904D118B1E585204600F0F1
:1053D0002BF8E06B40F01000E0632046FDF783FD02
:1053E00070BD10B50146806B09680968C90513D402
:1053F0000021C1850168CA6822F48072CA60016810
:105400004A6922F001024A6101684A6922F04002B9
:105410004A61202180F83A10FDF7B6FF10BD10B5A3
:10542000806BFDF7B2FF10BD0168CA6822F490726C
:10543000CA6001684A6922F001024A61202180F8AD
:105440003A1070470168CA6822F0C002CA60202181
:1054500080F83910704710B590F83A10222901D021
:10546000022010BD8168B1F5805F11D0016900296B
:1054700001681FD0496801F07F03816A4A1C82627B
:105480000B70C18D491E0904090CC18518D02BE091
:105490000269816A002A0268526805D0D2B20A8085
:1054A000816A491C8162ECE7C2F308020A80816AC2
:1054B000891CF7E74A68816A4B1C83620A70E0E73F
:1054C0000168CA6822F02002CA600168CA6822F432
:1054D0008072CA6001684A6922F001024A61202193
:1054E00080F83A10FDF750FF002010BD2DE9F04183
:1054F000044600680169E26821F4405111430161EA
:105500002169A068E2690843616911430843216881
:10551000CA6849F20C639A430243CA602068416931
:10552000A26921F4407111434161E06919276425A2
:105530003226B0F5004F354A354920684FF0000853
:1055400006D0884201D0904236D1FCF771FE35E09A
:10555000884201D0904202D1FCF76AFE01E0FCF7DC
:1055600057FE61684A18A0FB070148EB0803FAF7E9
:1055700099FE0146B0FBF5F00201B1FBF5F06FF0CA
:105580001803584301EB800006EBC000B0FBF5F0B8
:1055900000F0F80002EB4002B1FBF5F0584301EBDC
:1055A000800006EBC000B0FBF5F000F007002168BA
:1055B00010448860BDE8F081FCF72AFE61688B0F1B
:1055C0008A00A0FB0701FAF76DFE0146B0FBF5F07B
:1055D0006FF01802504301EB800006EB0010B0FBA7
:1055E000F5F000F0F002B1FBF5F002EB0012B1FBB8
:1055F000F5F06FF01803584301EB800006EB001044
:10560000B0FBF5F000F00F00D1E7000000140140FE
:105610000010014090F83910212901D00220704774
:105620008168B1F5805F016A0BD04A1C0262026892
:1056300009785160C18C491E0904090CC1840ED03F
:1056400017E009880268C1F3080151600169002967
:10565000016A02D0491C0162ECE7891CFBE7016882
:10566000CA6822F08002CA600068C16841F0400147
:10567000C160002070472DE9F041984617460E465C
:105680000446069D1DE0681C1BD02DB1FCF748FCAC
:10569000A0EB0800A84214D92068C16821F4D07199
:1056A000C1602068416921F001014161202084F836
:1056B000390084F83A00002084F838000320BDE85F
:1056C000F0812068006836EA000004D00020B8426B
:1056D000D9D00020F3E70120F9E7000010B5034816
:1056E000FDF702FCBDE81040FBF756B9D8050020D5
:1056F000FEF7E2BE10B50348FDF7F6FBBDE810402B
:10570000FFF7B0B85806002010B5044600F006F8C0
:105710002068C16841F01001C16010BD70B5044639
:1057200090F83900202801D0212829D121B31AB3BB
:1057300094F83800012823D0012084F83800A162B1
:10574000A2850025E56394F83900212816D022208F
:1057500084F8390008461346666B216802463046D5
:10576000091DFCF749FA2068416941F04001416197
:1057700084F83850002070BD012070BD2320E7E779
:10578000022070BDFEE72DE9F04115460E460746A2
:10579000002405E0315D384600F006F8641CE4B2F0
:1057A000AC42F7D3BDE8F08113B50A23012201A969
:1057B000FDF7ECFD1CBD00007CB504460BA00D46BA
:1057C000006800900AA0022200680190694609481A
:1057D000FFF7D9FFAAB221460648FFF7D4FF0222FD
:1057E00001A90448FFF7CFFF7CBD000003FC0000C7
:1057F000FC0300001806002030B50C46050014D04C
:10580000022C12D90A48A11E02882846FBF710FB79
:105810002919C2B211F8023C9A4206D111F8011CB2
:10582000B1EB102F01D1012030BD002030BD0000B0
:105830009800002030B50C4605000CD0022C0AD987
:10584000FF22611EFBF70AFB291911F8011C814296
:1058500001D1012030BD002030BD00B589B020212C
:105860008DEC080A6846FFF7A7FF09B000BD0000ED
:1058700038B5274C20680168C90648D501684068DA
:105880000090606B0068016821F001010160606BAD
:1058900000684068092830D11E48A0F10C01027848
:1058A0000A70027A8A720A78FF2A13D18A7AFE2A4B
:1058B00010D18278437842EA03224A800279C37881
:1058C00042EA03228A8042798A71C279807942EA67
:1058D000002008810620FFF711F810480E490068E3
:1058E00000F07AFC0C48006838B10D494FF0805048
:1058F0000860BFF34F8FBFF36F8F616B1220096891
:105900004860606B0068016841F00101016038BDCA
:1059100058050020704A00200801002024000020C3
:1059200004ED00E003480068C16841F02001C16057
:1059300070470000180600200907090E002804DB44
:1059400000F1E02080F80014704700F00F0000F133
:10595000E02080F8141D704702E008C8121F08C13B
:10596000002AFAD170477047002001E001C1121FE0
:10597000002AFBD17047D0ED000AF4EEC00AF1EE28
:1059800010FA06DCB1EE400AF4EEC00AF1EE10FAAD
:1059900001D280ED000A7047FCF7D0FAFFF74EFA0B
:1059A00000F010FBFEF740F8FDF7B0FFFDF76AFFCF
:1059B000FDF78AFFFEF7EAF8FEF70CF9FEF73EF96D
:1059C000FEF770F9FEF7D4F9FEF738FAFEF752FA4F
:1059D000FEF76CFAFEF78AFAFEF7A4FAFAF716FF5A
:1059E000FDF7C2FF00F00EFB00F015F8FEE70146E0
:1059F0000020842900D0C81C704710B500B90120D0
:105A000000F07EFB002010BD10B501B9012100F0AF
:105A10009DFB002010BD10B500F03AFC002010BD29
:105A20007FB50D4604464169B0F9080081B1A1690E
:105A300071B1FFF7DCFFD4E905128DE80700D4E966
:105A400000102B46226900F036FD039004B070BDB3
:105A5000FFF7CDFF03A9CDE90001208A2B4682B2D2
:105A6000D4E9001000F0FAFC012801D00020EDE795
:105A70000398EBE72DE9F041184C0F46054666699F
:105A80002068001D00F04EFA38B9206890F82C10FC
:105A900001208840A1698143A161681C07D137B109
:105AA0002168BDE8F0410E48091D00F07FBA20686A
:105AB0003544B5424560216805D2A068BDE8F04193
:105AC000091D00F05BBA6068091D00F057FA206BF1
:105AD000854200D22563BDE8F08100003800002037
